{
  "contractName": "Archiver",
  "abi": [
    {
      "anonymous": false,
      "inputs": [
        {
          "indexed": true,
          "internalType": "address",
          "name": "user",
          "type": "address"
        },
        {
          "indexed": false,
          "internalType": "string",
          "name": "identifier",
          "type": "string"
        }
      ],
      "name": "Archived",
      "type": "event"
    },
    {
      "inputs": [
        {
          "internalType": "string",
          "name": "identifier",
          "type": "string"
        }
      ],
      "name": "archive",
      "outputs": [],
      "stateMutability": "nonpayable",
      "type": "function"
    }
  ],
  "bytecode": "0x608060405234801561001057600080fd5b50610320806100206000396000f3fe608060405234801561001057600080fd5b506004361061002b5760003560e01c8063c93d7d0714610030575b600080fd5b61004a6004803603810190610045919061010d565b61004c565b005b3373ffffffffffffffffffffffffffffffffffffffff167f9c1778d8b9bf2ede865e9887e070fc18be96c5d5238cf036765565e0105bacec82604051610092919061018f565b60405180910390a250565b60006100b06100ab846101d6565b6101b1565b9050828152602081018484840111156100cc576100cb6102ca565b5b6100d7848285610223565b509392505050565b600082601f8301126100f4576100f36102c5565b5b813561010484826020860161009d565b91505092915050565b600060208284031215610123576101226102d4565b5b600082013567ffffffffffffffff811115610141576101406102cf565b5b61014d848285016100df565b91505092915050565b600061016182610207565b61016b8185610212565b935061017b818560208601610232565b610184816102d9565b840191505092915050565b600060208201905081810360008301526101a98184610156565b905092915050565b60006101bb6101cc565b90506101c78282610265565b919050565b6000604051905090565b600067ffffffffffffffff8211156101f1576101f0610296565b5b6101fa826102d9565b9050602081019050919050565b600081519050919050565b600082825260208201905092915050565b82818337600083830152505050565b60005b83811015610250578082015181840152602081019050610235565b8381111561025f576000848401525b50505050565b61026e826102d9565b810181811067ffffffffffffffff8211171561028d5761028c610296565b5b80604052505050565b7f4e487b7100000000000000000000000000000000000000000000000000000000600052604160045260246000fd5b600080fd5b600080fd5b600080fd5b600080fd5b6000601f19601f830116905091905056fea26469706673582212208d76a8b3e37850be0193b04752ee2429a88902ccb77b1f609657d7a77a1900f364736f6c63430008070033",
  "immutableReferences": {},
  "source": "pragma solidity ^0.8.3;\n\ncontract Archiver {\n\n    event Archived (address indexed user,string identifier);\n\n    function archive(string memory identifier) public {\n        emit Archived(msg.sender, identifier);\n    }\n}\n",
  "sourcePath": "/home/atri/workspace_ethereum/ethapp/archiver/src/contracts/Archiver.sol",
  "compiler": {
    "name": "solc",
    "version": "0.8.7+commit.e28d00a7.Emscripten.clang"
  },
  "schemaVersion": "3.4.3",
  "updatedAt": "2021-11-08T02:41:04.419Z",
  "networkType": "ethereum",
  "devdoc": {
    "kind": "dev",
    "methods": {},
    "version": 1
  },
  "userdoc": {
    "kind": "user",
    "methods": {},
    "version": 1
  }
}