{
  "contractName": "GalleryERC721",
  "abi": [
    {
      "inputs": [
        {
          "internalType": "string",
          "name": "name_",
          "type": "string"
        },
        {
          "internalType": "string",
          "name": "symbol_",
          "type": "string"
        }
      ],
      "stateMutability": "nonpayable",
      "type": "constructor"
    },
    {
      "anonymous": false,
      "inputs": [
        {
          "indexed": true,
          "internalType": "address",
          "name": "_owner",
          "type": "address"
        },
        {
          "indexed": true,
          "internalType": "address",
          "name": "_approved",
          "type": "address"
        },
        {
          "indexed": true,
          "internalType": "uint256",
          "name": "_tokenId",
          "type": "uint256"
        }
      ],
      "name": "Approval",
      "type": "event"
    },
    {
      "anonymous": false,
      "inputs": [
        {
          "indexed": true,
          "internalType": "address",
          "name": "_owner",
          "type": "address"
        },
        {
          "indexed": true,
          "internalType": "address",
          "name": "_operator",
          "type": "address"
        },
        {
          "indexed": false,
          "internalType": "bool",
          "name": "_approved",
          "type": "bool"
        }
      ],
      "name": "ApprovalForAll",
      "type": "event"
    },
    {
      "anonymous": false,
      "inputs": [
        {
          "indexed": true,
          "internalType": "address",
          "name": "user",
          "type": "address"
        },
        {
          "indexed": false,
          "internalType": "uint256",
          "name": "token",
          "type": "uint256"
        },
        {
          "indexed": false,
          "internalType": "string",
          "name": "identifier",
          "type": "string"
        }
      ],
      "name": "Archived",
      "type": "event"
    },
    {
      "anonymous": false,
      "inputs": [
        {
          "indexed": true,
          "internalType": "address",
          "name": "_from",
          "type": "address"
        },
        {
          "indexed": true,
          "internalType": "address",
          "name": "_to",
          "type": "address"
        },
        {
          "indexed": true,
          "internalType": "uint256",
          "name": "_tokenId",
          "type": "uint256"
        }
      ],
      "name": "Transfer",
      "type": "event"
    },
    {
      "inputs": [
        {
          "internalType": "address",
          "name": "to",
          "type": "address"
        },
        {
          "internalType": "uint256",
          "name": "tokenId",
          "type": "uint256"
        }
      ],
      "name": "approve",
      "outputs": [],
      "stateMutability": "payable",
      "type": "function",
      "payable": true
    },
    {
      "inputs": [
        {
          "internalType": "address",
          "name": "owner",
          "type": "address"
        }
      ],
      "name": "balanceOf",
      "outputs": [
        {
          "internalType": "uint256",
          "name": "",
          "type": "uint256"
        }
      ],
      "stateMutability": "view",
      "type": "function",
      "constant": true
    },
    {
      "inputs": [
        {
          "internalType": "uint256",
          "name": "tokenId",
          "type": "uint256"
        }
      ],
      "name": "getApproved",
      "outputs": [
        {
          "internalType": "address",
          "name": "",
          "type": "address"
        }
      ],
      "stateMutability": "view",
      "type": "function",
      "constant": true
    },
    {
      "inputs": [
        {
          "internalType": "address",
          "name": "owner",
          "type": "address"
        },
        {
          "internalType": "address",
          "name": "operator",
          "type": "address"
        }
      ],
      "name": "isApprovedForAll",
      "outputs": [
        {
          "internalType": "bool",
          "name": "",
          "type": "bool"
        }
      ],
      "stateMutability": "view",
      "type": "function",
      "constant": true
    },
    {
      "inputs": [],
      "name": "name",
      "outputs": [
        {
          "internalType": "string",
          "name": "",
          "type": "string"
        }
      ],
      "stateMutability": "view",
      "type": "function",
      "constant": true
    },
    {
      "inputs": [
        {
          "internalType": "uint256",
          "name": "tokenId",
          "type": "uint256"
        }
      ],
      "name": "ownerOf",
      "outputs": [
        {
          "internalType": "address",
          "name": "",
          "type": "address"
        }
      ],
      "stateMutability": "view",
      "type": "function",
      "constant": true
    },
    {
      "inputs": [
        {
          "internalType": "uint256",
          "name": "tokenId",
          "type": "uint256"
        }
      ],
      "name": "safeBurn",
      "outputs": [],
      "stateMutability": "nonpayable",
      "type": "function"
    },
    {
      "inputs": [
        {
          "internalType": "address",
          "name": "from",
          "type": "address"
        },
        {
          "internalType": "address",
          "name": "to",
          "type": "address"
        },
        {
          "internalType": "uint256",
          "name": "tokenId",
          "type": "uint256"
        }
      ],
      "name": "safeTransferFrom",
      "outputs": [],
      "stateMutability": "payable",
      "type": "function",
      "payable": true
    },
    {
      "inputs": [
        {
          "internalType": "address",
          "name": "from",
          "type": "address"
        },
        {
          "internalType": "address",
          "name": "to",
          "type": "address"
        },
        {
          "internalType": "uint256",
          "name": "tokenId",
          "type": "uint256"
        },
        {
          "internalType": "bytes",
          "name": "_data",
          "type": "bytes"
        }
      ],
      "name": "safeTransferFrom",
      "outputs": [],
      "stateMutability": "payable",
      "type": "function",
      "payable": true
    },
    {
      "inputs": [
        {
          "internalType": "address",
          "name": "operator",
          "type": "address"
        },
        {
          "internalType": "bool",
          "name": "approved",
          "type": "bool"
        }
      ],
      "name": "setApprovalForAll",
      "outputs": [],
      "stateMutability": "nonpayable",
      "type": "function"
    },
    {
      "inputs": [
        {
          "internalType": "bytes4",
          "name": "interfaceId",
          "type": "bytes4"
        }
      ],
      "name": "supportsInterface",
      "outputs": [
        {
          "internalType": "bool",
          "name": "",
          "type": "bool"
        }
      ],
      "stateMutability": "view",
      "type": "function",
      "constant": true
    },
    {
      "inputs": [],
      "name": "symbol",
      "outputs": [
        {
          "internalType": "string",
          "name": "",
          "type": "string"
        }
      ],
      "stateMutability": "view",
      "type": "function",
      "constant": true
    },
    {
      "inputs": [
        {
          "internalType": "uint256",
          "name": "tokenId",
          "type": "uint256"
        },
        {
          "internalType": "string",
          "name": "uri",
          "type": "string"
        }
      ],
      "name": "tokenURI",
      "outputs": [],
      "stateMutability": "nonpayable",
      "type": "function"
    },
    {
      "inputs": [
        {
          "internalType": "uint256",
          "name": "tokenId",
          "type": "uint256"
        }
      ],
      "name": "tokenURI",
      "outputs": [
        {
          "internalType": "string",
          "name": "",
          "type": "string"
        }
      ],
      "stateMutability": "view",
      "type": "function",
      "constant": true
    },
    {
      "inputs": [
        {
          "internalType": "address",
          "name": "from",
          "type": "address"
        },
        {
          "internalType": "address",
          "name": "to",
          "type": "address"
        },
        {
          "internalType": "uint256",
          "name": "tokenId",
          "type": "uint256"
        }
      ],
      "name": "transferFrom",
      "outputs": [],
      "stateMutability": "payable",
      "type": "function",
      "payable": true
    },
    {
      "inputs": [
        {
          "internalType": "uint8",
          "name": "v",
          "type": "uint8"
        },
        {
          "internalType": "bytes32",
          "name": "r",
          "type": "bytes32"
        },
        {
          "internalType": "bytes32",
          "name": "s",
          "type": "bytes32"
        },
        {
          "internalType": "address",
          "name": "sender",
          "type": "address"
        },
        {
          "internalType": "uint256",
          "name": "deadline",
          "type": "uint256"
        },
        {
          "internalType": "string",
          "name": "ipfs_hash",
          "type": "string"
        },
        {
          "internalType": "string",
          "name": "ipfs_url",
          "type": "string"
        }
      ],
      "name": "executeMintIfSignatureMatch",
      "outputs": [
        {
          "internalType": "uint256",
          "name": "",
          "type": "uint256"
        }
      ],
      "stateMutability": "nonpayable",
      "type": "function"
    },
    {
      "inputs": [
        {
          "internalType": "address",
          "name": "recipient",
          "type": "address"
        },
        {
          "internalType": "string",
          "name": "hash",
          "type": "string"
        },
        {
          "internalType": "string",
          "name": "metadata",
          "type": "string"
        }
      ],
      "name": "mintToken",
      "outputs": [
        {
          "internalType": "uint256",
          "name": "",
          "type": "uint256"
        }
      ],
      "stateMutability": "nonpayable",
      "type": "function"
    }
  ],
  "bytecode": "0x60806040523480156200001157600080fd5b5060405162003a9438038062003a948339818101604052810190620000379190620002cb565b81818160029080519060200190620000519291906200019d565b5080600390805190602001906200006a9291906200019d565b5060006001819055506200008b6380ac58cd60e01b620000c560201b60201c565b620000a3635b5e139f60e01b620000c560201b60201c565b620000bb63780e9d6360e01b620000c560201b60201c565b5050505062000557565b63ffffffff60e01b817bffffffffffffffffffffffffffffffffffffffffffffffffffffffff1916141562000131576040517f08c379a0000000000000000000000000000000000000000000000000000000008152600401620001289062000377565b60405180910390fd5b6001600080837bffffffffffffffffffffffffffffffffffffffffffffffffffffffff19167bffffffffffffffffffffffffffffffffffffffffffffffffffffffff1916815260200190815260200160002060006101000a81548160ff02191690831515021790555050565b828054620001ab906200043f565b90600052602060002090601f016020900481019282620001cf57600085556200021b565b82601f10620001ea57805160ff19168380011785556200021b565b828001600101855582156200021b579182015b828111156200021a578251825591602001919060010190620001fd565b5b5090506200022a91906200022e565b5090565b5b80821115620002495760008160009055506001016200022f565b5090565b6000620002646200025e84620003c2565b62000399565b9050828152602081018484840111156200028357620002826200050e565b5b6200029084828562000409565b509392505050565b600082601f830112620002b057620002af62000509565b5b8151620002c28482602086016200024d565b91505092915050565b60008060408385031215620002e557620002e462000518565b5b600083015167ffffffffffffffff81111562000306576200030562000513565b5b620003148582860162000298565b925050602083015167ffffffffffffffff81111562000338576200033762000513565b5b620003468582860162000298565b9150509250929050565b60006200035f601c83620003f8565b91506200036c826200052e565b602082019050919050565b60006020820190508181036000830152620003928162000350565b9050919050565b6000620003a5620003b8565b9050620003b3828262000475565b919050565b6000604051905090565b600067ffffffffffffffff821115620003e057620003df620004da565b5b620003eb826200051d565b9050602081019050919050565b600082825260208201905092915050565b60005b83811015620004295780820151818401526020810190506200040c565b8381111562000439576000848401525b50505050565b600060028204905060018216806200045857607f821691505b602082108114156200046f576200046e620004ab565b5b50919050565b62000480826200051d565b810181811067ffffffffffffffff82111715620004a257620004a1620004da565b5b80604052505050565b7f4e487b7100000000000000000000000000000000000000000000000000000000600052602260045260246000fd5b7f4e487b7100000000000000000000000000000000000000000000000000000000600052604160045260246000fd5b600080fd5b600080fd5b600080fd5b600080fd5b6000601f19601f8301169050919050565b7f4552433136353a20696e76616c696420696e7465726661636520696400000000600082015250565b61352d80620005676000396000f3fe6080604052600436106100fe5760003560e01c80636352211e11610095578063abf6dc6511610064578063abf6dc6514610330578063b88d4fde1461036d578063c87b56dd14610389578063dbf51325146103c6578063e985e9c5146103ef576100fe565b80636352211e1461026257806370a082311461029f57806395d89b41146102dc578063a22cb46514610307576100fe565b806323b872dd116100d157806323b872dd146101c45780632e689c3f146101e057806341dcf4541461021d57806342842e0e14610246576100fe565b806301ffc9a71461010357806306fdde0314610140578063081812fc1461016b578063095ea7b3146101a8575b600080fd5b34801561010f57600080fd5b5061012a6004803603810190610125919061219c565b61042c565b6040516101379190612831565b60405180910390f35b34801561014c57600080fd5b50610155610493565b6040516101629190612937565b60405180910390f35b34801561017757600080fd5b50610192600480360381019061018d91906121f6565b610525565b60405161019f91906127ca565b60405180910390f35b6101c260048036038101906101bd919061215c565b6105aa565b005b6101de60048036038101906101d99190611fbb565b6106b4565b005b3480156101ec57600080fd5b50610207600480360381019061020291906120d1565b610714565b6040516102149190612b79565b60405180910390f35b34801561022957600080fd5b50610244600480360381019061023f9190612223565b61081d565b005b610260600480360381019061025b9190611fbb565b610849565b005b34801561026e57600080fd5b50610289600480360381019061028491906121f6565b610869565b60405161029691906127ca565b60405180910390f35b3480156102ab57600080fd5b506102c660048036038101906102c19190611f4e565b6108a6565b6040516102d39190612b79565b60405180910390f35b3480156102e857600080fd5b506102f1610961565b6040516102fe9190612937565b60405180910390f35b34801561031357600080fd5b5061032e60048036038101906103299190612091565b6109f3565b005b34801561033c57600080fd5b506103576004803603810190610352919061227f565b610b74565b6040516103649190612b79565b60405180910390f35b6103876004803603810190610382919061200e565b610e66565b005b34801561039557600080fd5b506103b060048036038101906103ab91906121f6565b610ec8565b6040516103bd9190612937565b60405180910390f35b3480156103d257600080fd5b506103ed60048036038101906103e891906121f6565b610f6d565b005b3480156103fb57600080fd5b5061041660048036038101906104119190611f7b565b61100a565b6040516104239190612831565b60405180910390f35b6000806000837bffffffffffffffffffffffffffffffffffffffffffffffffffffffff19167bffffffffffffffffffffffffffffffffffffffffffffffffffffffff1916815260200190815260200160002060009054906101000a900460ff169050919050565b6060600280546104a290612df0565b80601f01602080910402602001604051908101604052809291908181526020018280546104ce90612df0565b801561051b5780601f106104f05761010080835404028352916020019161051b565b820191906000526020600020905b8154815290600101906020018083116104fe57829003601f168201915b5050505050905090565b60006105308261109e565b61056f576040517f08c379a000000000000000000000000000000000000000000000000000000000815260040161056690612ab9565b60405180910390fd5b6007600083815260200190815260200160002060009054906101000a900473ffffffffffffffffffffffffffffffffffffffff169050919050565b60006105b582610869565b90508073ffffffffffffffffffffffffffffffffffffffff168373ffffffffffffffffffffffffffffffffffffffff161415610626576040517f08c379a000000000000000000000000000000000000000000000000000000000815260040161061d90612b19565b60405180910390fd5b8073ffffffffffffffffffffffffffffffffffffffff163373ffffffffffffffffffffffffffffffffffffffff1614806106665750610665813361100a565b5b6106a5576040517f08c379a000000000000000000000000000000000000000000000000000000000815260040161069c90612a39565b60405180910390fd5b6106af838361110a565b505050565b6106c56106bf6111c3565b826111cb565b610704576040517f08c379a00000000000000000000000000000000000000000000000000000000081526004016106fb90612b39565b60405180910390fd5b61070f8383836112a9565b505050565b600060016009846040516107289190612756565b908152602001604051809103902060009054906101000a900460ff1660ff16141561075257600080fd5b60016009846040516107649190612756565b908152602001604051809103902060006101000a81548160ff021916908360ff160217905550610792611506565b600061079c61151c565b90506107b8858260405180602001604052806000815250611526565b6107c2818461081d565b8473ffffffffffffffffffffffffffffffffffffffff167f0646a6e88b0018faa0308fb419a64650eb017dd8385052cdb27eb7f9df40848b828660405161080a929190612b94565b60405180910390a2809150509392505050565b80600660008481526020019081526020016000209080519060200190610844929190611cf8565b505050565b61086483838360405180602001604052806000815250610e66565b505050565b60006005600083815260200190815260200160002060009054906101000a900473ffffffffffffffffffffffffffffffffffffffff169050919050565b60008073ffffffffffffffffffffffffffffffffffffffff168273ffffffffffffffffffffffffffffffffffffffff161415610917576040517f08c379a000000000000000000000000000000000000000000000000000000000815260040161090e90612a79565b60405180910390fd5b600460008373ffffffffffffffffffffffffffffffffffffffff1673ffffffffffffffffffffffffffffffffffffffff168152602001908152602001600020805490509050919050565b60606003805461097090612df0565b80601f016020809104026020016040519081016040528092919081815260200182805461099c90612df0565b80156109e95780601f106109be576101008083540402835291602001916109e9565b820191906000526020600020905b8154815290600101906020018083116109cc57829003601f168201915b5050505050905090565b6109fb6111c3565b73ffffffffffffffffffffffffffffffffffffffff168273ffffffffffffffffffffffffffffffffffffffff161415610a69576040517f08c379a0000000000000000000000000000000000000000000000000000000008152600401610a60906129d9565b60405180910390fd5b8060086000610a766111c3565b73ffffffffffffffffffffffffffffffffffffffff1673ffffffffffffffffffffffffffffffffffffffff16815260200190815260200160002060008473ffffffffffffffffffffffffffffffffffffffff1673ffffffffffffffffffffffffffffffffffffffff16815260200190815260200160002060006101000a81548160ff0219169083151502179055508173ffffffffffffffffffffffffffffffffffffffff16610b236111c3565b73ffffffffffffffffffffffffffffffffffffffff167f17307eab39ab6107e8899845ad3d59bd9653f200f220920489ca2b5937696c3183604051610b689190612831565b60405180910390a35050565b6000834210610bb8576040517f08c379a0000000000000000000000000000000000000000000000000000000008152600401610baf90612af9565b60405180910390fd5b6000610539905060007f8b73c3c69bb8fe3d512ecc4cf759cc79239f7b179b0ffacaa9a75d522b39400f6040518060400160405280600d81526020017f47616c6c65727945524337323100000000000000000000000000000000000000815250805190602001206040518060400160405280600181526020017f3100000000000000000000000000000000000000000000000000000000000000815250805190602001208430604051602001610c7295949392919061289f565b60405160208183030381529060405280519060200120905060007f07e7784db8604bb8d2068643db3ef0a676246e3c684e7c0e1c5544f77663c27288878051906020012087805190602001208a604051602001610cd395949392919061284c565b60405160208183030381529060405280519060200120905060008282604051602001610d00929190612793565b60405160208183030381529060405280519060200120905060006001828e8e8e60405160008152602001604052604051610d3d94939291906128f2565b6020604051602081039080840390855afa158015610d5f573d6000803e3d6000fd5b505050602060405103519050600073ffffffffffffffffffffffffffffffffffffffff168173ffffffffffffffffffffffffffffffffffffffff161415610ddb576040517f08c379a0000000000000000000000000000000000000000000000000000000008152600401610dd290612959565b60405180910390fd5b8973ffffffffffffffffffffffffffffffffffffffff168173ffffffffffffffffffffffffffffffffffffffff1614610e49576040517f08c379a0000000000000000000000000000000000000000000000000000000008152600401610e4090612a59565b60405180910390fd5b610e54818989610714565b95505050505050979650505050505050565b610e77610e716111c3565b836111cb565b610eb6576040517f08c379a0000000000000000000000000000000000000000000000000000000008152600401610ead90612b39565b60405180910390fd5b610ec284848484611581565b50505050565b6060600660008381526020019081526020016000208054610ee890612df0565b80601f0160208091040260200160405190810160405280929190818152602001828054610f1490612df0565b8015610f615780601f10610f3657610100808354040283529160200191610f61565b820191906000526020600020905b815481529060010190602001808311610f4457829003601f168201915b50505050509050919050565b610f768161109e565b610fb5576040517f08c379a0000000000000000000000000000000000000000000000000000000008152600401610fac90612a19565b60405180910390fd5b610fbe816115dd565b610fc78161109e565b15611007576040517f08c379a0000000000000000000000000000000000000000000000000000000008152600401610ffe90612999565b60405180910390fd5b50565b6000600860008473ffffffffffffffffffffffffffffffffffffffff1673ffffffffffffffffffffffffffffffffffffffff16815260200190815260200160002060008373ffffffffffffffffffffffffffffffffffffffff1673ffffffffffffffffffffffffffffffffffffffff16815260200190815260200160002060009054906101000a900460ff16905092915050565b60008073ffffffffffffffffffffffffffffffffffffffff166005600084815260200190815260200160002060009054906101000a900473ffffffffffffffffffffffffffffffffffffffff1673ffffffffffffffffffffffffffffffffffffffff1614159050919050565b816007600083815260200190815260200160002060006101000a81548173ffffffffffffffffffffffffffffffffffffffff021916908373ffffffffffffffffffffffffffffffffffffffff160217905550808273ffffffffffffffffffffffffffffffffffffffff1661117d83610869565b73ffffffffffffffffffffffffffffffffffffffff167f8c5be1e5ebec7d5bd14f71427d1e84f3dd0314c0f7b2291e5b200ac8c7c3b92560405160405180910390a45050565b600033905090565b60006111d68261109e565b611215576040517f08c379a000000000000000000000000000000000000000000000000000000000815260040161120c90612a19565b60405180910390fd5b600061122083610869565b90508073ffffffffffffffffffffffffffffffffffffffff168473ffffffffffffffffffffffffffffffffffffffff16148061128f57508373ffffffffffffffffffffffffffffffffffffffff1661127784610525565b73ffffffffffffffffffffffffffffffffffffffff16145b806112a0575061129f818561100a565b5b91505092915050565b8273ffffffffffffffffffffffffffffffffffffffff166112c982610869565b73ffffffffffffffffffffffffffffffffffffffff161461131f576040517f08c379a000000000000000000000000000000000000000000000000000000000815260040161131690612ad9565b60405180910390fd5b600073ffffffffffffffffffffffffffffffffffffffff168273ffffffffffffffffffffffffffffffffffffffff16141561138f576040517f08c379a0000000000000000000000000000000000000000000000000000000008152600401611386906129b9565b60405180910390fd5b61139a8383836116e9565b6113a560008261110a565b6113af83826116ee565b6113ee576040517f08c379a00000000000000000000000000000000000000000000000000000000081526004016113e5906129f9565b60405180910390fd5b600460008373ffffffffffffffffffffffffffffffffffffffff1673ffffffffffffffffffffffffffffffffffffffff168152602001908152602001600020819080600181540180825580915050600190039060005260206000200160009091909190915055816005600083815260200190815260200160002060006101000a81548173ffffffffffffffffffffffffffffffffffffffff021916908373ffffffffffffffffffffffffffffffffffffffff160217905550808273ffffffffffffffffffffffffffffffffffffffff168473ffffffffffffffffffffffffffffffffffffffff167fddf252ad1be2c89b69c2b068fc378daa952ba7f163c4a11628f55a4df523b3ef60405160405180910390a4505050565b600180546115149190612c99565b600181905550565b6000600154905090565b6115308383611918565b61153d6000848484611b18565b61157c576040517f08c379a000000000000000000000000000000000000000000000000000000000815260040161157390612979565b60405180910390fd5b505050565b61158c8484846112a9565b61159884848484611b18565b6115d7576040517f08c379a00000000000000000000000000000000000000000000000000000000081526004016115ce90612979565b60405180910390fd5b50505050565b60006115e882610869565b90506115f6816000846116e9565b61160160008361110a565b600060066000848152602001908152602001600020805461162190612df0565b905014611648576006600083815260200190815260200160002060006116479190611d7e565b5b61165281836116ee565b506005600083815260200190815260200160002060006101000a81549073ffffffffffffffffffffffffffffffffffffffff021916905581600073ffffffffffffffffffffffffffffffffffffffff168273ffffffffffffffffffffffffffffffffffffffff167fddf252ad1be2c89b69c2b068fc378daa952ba7f163c4a11628f55a4df523b3ef60405160405180910390a45050565b505050565b600080600460008573ffffffffffffffffffffffffffffffffffffffff1673ffffffffffffffffffffffffffffffffffffffff1681526020019081526020016000208054905090506000819050600060018361174a9190612cef565b905060005b838110156117d55785600460008973ffffffffffffffffffffffffffffffffffffffff1673ffffffffffffffffffffffffffffffffffffffff16815260200190815260200160002082815481106117a9576117a8612f3d565b5b906000526020600020015414156117c2578092506117d5565b80806117cd90612e53565b91505061174f565b508282101561190a57600460008773ffffffffffffffffffffffffffffffffffffffff1673ffffffffffffffffffffffffffffffffffffffff168152602001908152602001600020818154811061182f5761182e612f3d565b5b9060005260206000200154600460008873ffffffffffffffffffffffffffffffffffffffff1673ffffffffffffffffffffffffffffffffffffffff168152602001908152602001600020838154811061188b5761188a612f3d565b5b9060005260206000200181905550600460008773ffffffffffffffffffffffffffffffffffffffff1673ffffffffffffffffffffffffffffffffffffffff1681526020019081526020016000208054806118e8576118e7612f0e565b5b6001900381819060005260206000200160009055905560019350505050611912565b600093505050505b92915050565b600073ffffffffffffffffffffffffffffffffffffffff168273ffffffffffffffffffffffffffffffffffffffff161415611988576040517f08c379a000000000000000000000000000000000000000000000000000000000815260040161197f90612a99565b60405180910390fd5b6119918161109e565b15816040516020016119a3919061276d565b604051602081830303815290604052906119f3576040517f08c379a00000000000000000000000000000000000000000000000000000000081526004016119ea9190612937565b60405180910390fd5b50611a00600083836116e9565b600460008373ffffffffffffffffffffffffffffffffffffffff1673ffffffffffffffffffffffffffffffffffffffff168152602001908152602001600020819080600181540180825580915050600190039060005260206000200160009091909190915055816005600083815260200190815260200160002060006101000a81548173ffffffffffffffffffffffffffffffffffffffff021916908373ffffffffffffffffffffffffffffffffffffffff160217905550808273ffffffffffffffffffffffffffffffffffffffff16600073ffffffffffffffffffffffffffffffffffffffff167fddf252ad1be2c89b69c2b068fc378daa952ba7f163c4a11628f55a4df523b3ef60405160405180910390a45050565b6000611b2384611c6c565b611b305760019050611c64565b600080611bba8663150b7a0260e01b338a8989604051602401611b5694939291906127e5565b604051602081830303815290604052907bffffffffffffffffffffffffffffffffffffffffffffffffffffffff19166020820180517bffffffffffffffffffffffffffffffffffffffffffffffffffffffff83818316178352505050506000611c7f565b9150915081611bfe576040517f08c379a0000000000000000000000000000000000000000000000000000000008152600401611bf590612b59565b60405180910390fd5b600081806020019051810190611c1491906121c9565b905063150b7a0260e01b7bffffffffffffffffffffffffffffffffffffffffffffffffffffffff1916817bffffffffffffffffffffffffffffffffffffffffffffffffffffffff19161493505050505b949350505050565b600080823b905060008111915050919050565b600060608473ffffffffffffffffffffffffffffffffffffffff168385604051611ca9919061273f565b60006040518083038185875af1925050503d8060008114611ce6576040519150601f19603f3d011682016040523d82523d6000602084013e611ceb565b606091505b5091509150935093915050565b828054611d0490612df0565b90600052602060002090601f016020900481019282611d265760008555611d6d565b82601f10611d3f57805160ff1916838001178555611d6d565b82800160010185558215611d6d579182015b82811115611d6c578251825591602001919060010190611d51565b5b509050611d7a9190611dbe565b5090565b508054611d8a90612df0565b6000825580601f10611d9c5750611dbb565b601f016020900490600052602060002090810190611dba9190611dbe565b5b50565b5b80821115611dd7576000816000905550600101611dbf565b5090565b6000611dee611de984612be9565b612bc4565b905082815260208101848484011115611e0a57611e09612fa0565b5b611e15848285612dae565b509392505050565b6000611e30611e2b84612c1a565b612bc4565b905082815260208101848484011115611e4c57611e4b612fa0565b5b611e57848285612dae565b509392505050565b600081359050611e6e8161346d565b92915050565b600081359050611e8381613484565b92915050565b600081359050611e988161349b565b92915050565b600081359050611ead816134b2565b92915050565b600081519050611ec2816134b2565b92915050565b600082601f830112611edd57611edc612f9b565b5b8135611eed848260208601611ddb565b91505092915050565b600082601f830112611f0b57611f0a612f9b565b5b8135611f1b848260208601611e1d565b91505092915050565b600081359050611f33816134c9565b92915050565b600081359050611f48816134e0565b92915050565b600060208284031215611f6457611f63612faa565b5b6000611f7284828501611e5f565b91505092915050565b60008060408385031215611f9257611f91612faa565b5b6000611fa085828601611e5f565b9250506020611fb185828601611e5f565b9150509250929050565b600080600060608486031215611fd457611fd3612faa565b5b6000611fe286828701611e5f565b9350506020611ff386828701611e5f565b925050604061200486828701611f24565b9150509250925092565b6000806000806080858703121561202857612027612faa565b5b600061203687828801611e5f565b945050602061204787828801611e5f565b935050604061205887828801611f24565b925050606085013567ffffffffffffffff81111561207957612078612fa5565b5b61208587828801611ec8565b91505092959194509250565b600080604083850312156120a8576120a7612faa565b5b60006120b685828601611e5f565b92505060206120c785828601611e74565b9150509250929050565b6000806000606084860312156120ea576120e9612faa565b5b60006120f886828701611e5f565b935050602084013567ffffffffffffffff81111561211957612118612fa5565b5b61212586828701611ef6565b925050604084013567ffffffffffffffff81111561214657612145612fa5565b5b61215286828701611ef6565b9150509250925092565b6000806040838503121561217357612172612faa565b5b600061218185828601611e5f565b925050602061219285828601611f24565b9150509250929050565b6000602082840312156121b2576121b1612faa565b5b60006121c084828501611e9e565b91505092915050565b6000602082840312156121df576121de612faa565b5b60006121ed84828501611eb3565b91505092915050565b60006020828403121561220c5761220b612faa565b5b600061221a84828501611f24565b91505092915050565b6000806040838503121561223a57612239612faa565b5b600061224885828601611f24565b925050602083013567ffffffffffffffff81111561226957612268612fa5565b5b61227585828601611ef6565b9150509250929050565b600080600080600080600060e0888a03121561229e5761229d612faa565b5b60006122ac8a828b01611f39565b97505060206122bd8a828b01611e89565b96505060406122ce8a828b01611e89565b95505060606122df8a828b01611e5f565b94505060806122f08a828b01611f24565b93505060a088013567ffffffffffffffff81111561231157612310612fa5565b5b61231d8a828b01611ef6565b92505060c088013567ffffffffffffffff81111561233e5761233d612fa5565b5b61234a8a828b01611ef6565b91505092959891949750929550565b61236281612d23565b82525050565b61237181612d35565b82525050565b61238081612d41565b82525050565b61239761239282612d41565b612e9c565b82525050565b60006123a882612c4b565b6123b28185612c61565b93506123c2818560208601612dbd565b6123cb81612faf565b840191505092915050565b60006123e182612c4b565b6123eb8185612c72565b93506123fb818560208601612dbd565b80840191505092915050565b600061241282612c56565b61241c8185612c7d565b935061242c818560208601612dbd565b61243581612faf565b840191505092915050565b600061244b82612c56565b6124558185612c8e565b9350612465818560208601612dbd565b80840191505092915050565b600061247e601883612c7d565b915061248982612fc0565b602082019050919050565b60006124a1601e83612c8e565b91506124ac82612fe9565b601e82019050919050565b60006124c4603283612c7d565b91506124cf82613012565b604082019050919050565b60006124e7600283612c8e565b91506124f282613061565b600282019050919050565b600061250a600f83612c7d565b91506125158261308a565b602082019050919050565b600061252d602483612c7d565b9150612538826130b3565b604082019050919050565b6000612550601983612c7d565b915061255b82613102565b602082019050919050565b6000612573600f83612c7d565b915061257e8261312b565b602082019050919050565b6000612596602c83612c7d565b91506125a182613154565b604082019050919050565b60006125b9603883612c7d565b91506125c4826131a3565b604082019050919050565b60006125dc602583612c7d565b91506125e7826131f2565b604082019050919050565b60006125ff602a83612c7d565b915061260a82613241565b604082019050919050565b6000612622602083612c7d565b915061262d82613290565b602082019050919050565b6000612645602c83612c7d565b9150612650826132b9565b604082019050919050565b6000612668602983612c7d565b915061267382613308565b604082019050919050565b600061268b601a83612c7d565b915061269682613357565b602082019050919050565b60006126ae602183612c7d565b91506126b982613380565b604082019050919050565b60006126d1603183612c7d565b91506126dc826133cf565b604082019050919050565b60006126f4602283612c7d565b91506126ff8261341e565b604082019050919050565b61271381612d97565b82525050565b61272a61272582612d97565b612ea6565b82525050565b61273981612da1565b82525050565b600061274b82846123d6565b915081905092915050565b60006127628284612440565b915081905092915050565b600061277882612494565b91506127848284612719565b60208201915081905092915050565b600061279e826124da565b91506127aa8285612386565b6020820191506127ba8284612386565b6020820191508190509392505050565b60006020820190506127df6000830184612359565b92915050565b60006080820190506127fa6000830187612359565b6128076020830186612359565b612814604083018561270a565b8181036060830152612826818461239d565b905095945050505050565b60006020820190506128466000830184612368565b92915050565b600060a0820190506128616000830188612377565b61286e6020830187612359565b61287b6040830186612377565b6128886060830185612377565b612895608083018461270a565b9695505050505050565b600060a0820190506128b46000830188612377565b6128c16020830187612377565b6128ce6040830186612377565b6128db606083018561270a565b6128e86080830184612359565b9695505050505050565b60006080820190506129076000830187612377565b6129146020830186612730565b6129216040830185612377565b61292e6060830184612377565b95945050505050565b600060208201905081810360008301526129518184612407565b905092915050565b6000602082019050818103600083015261297281612471565b9050919050565b60006020820190508181036000830152612992816124b7565b9050919050565b600060208201905081810360008301526129b2816124fd565b9050919050565b600060208201905081810360008301526129d281612520565b9050919050565b600060208201905081810360008301526129f281612543565b9050919050565b60006020820190508181036000830152612a1281612566565b9050919050565b60006020820190508181036000830152612a3281612589565b9050919050565b60006020820190508181036000830152612a52816125ac565b9050919050565b60006020820190508181036000830152612a72816125cf565b9050919050565b60006020820190508181036000830152612a92816125f2565b9050919050565b60006020820190508181036000830152612ab281612615565b9050919050565b60006020820190508181036000830152612ad281612638565b9050919050565b60006020820190508181036000830152612af28161265b565b9050919050565b60006020820190508181036000830152612b128161267e565b9050919050565b60006020820190508181036000830152612b32816126a1565b9050919050565b60006020820190508181036000830152612b52816126c4565b9050919050565b60006020820190508181036000830152612b72816126e7565b9050919050565b6000602082019050612b8e600083018461270a565b92915050565b6000604082019050612ba9600083018561270a565b8181036020830152612bbb8184612407565b90509392505050565b6000612bce612bdf565b9050612bda8282612e22565b919050565b6000604051905090565b600067ffffffffffffffff821115612c0457612c03612f6c565b5b612c0d82612faf565b9050602081019050919050565b600067ffffffffffffffff821115612c3557612c34612f6c565b5b612c3e82612faf565b9050602081019050919050565b600081519050919050565b600081519050919050565b600082825260208201905092915050565b600081905092915050565b600082825260208201905092915050565b600081905092915050565b6000612ca482612d97565b9150612caf83612d97565b9250827fffffffffffffffffffffffffffffffffffffffffffffffffffffffffffffffff03821115612ce457612ce3612eb0565b5b828201905092915050565b6000612cfa82612d97565b9150612d0583612d97565b925082821015612d1857612d17612eb0565b5b828203905092915050565b6000612d2e82612d77565b9050919050565b60008115159050919050565b6000819050919050565b60007fffffffff0000000000000000000000000000000000000000000000000000000082169050919050565b600073ffffffffffffffffffffffffffffffffffffffff82169050919050565b6000819050919050565b600060ff82169050919050565b82818337600083830152505050565b60005b83811015612ddb578082015181840152602081019050612dc0565b83811115612dea576000848401525b50505050565b60006002820490506001821680612e0857607f821691505b60208210811415612e1c57612e1b612edf565b5b50919050565b612e2b82612faf565b810181811067ffffffffffffffff82111715612e4a57612e49612f6c565b5b80604052505050565b6000612e5e82612d97565b91507fffffffffffffffffffffffffffffffffffffffffffffffffffffffffffffffff821415612e9157612e90612eb0565b5b600182019050919050565b6000819050919050565b6000819050919050565b7f4e487b7100000000000000000000000000000000000000000000000000000000600052601160045260246000fd5b7f4e487b7100000000000000000000000000000000000000000000000000000000600052602260045260246000fd5b7f4e487b7100000000000000000000000000000000000000000000000000000000600052603160045260246000fd5b7f4e487b7100000000000000000000000000000000000000000000000000000000600052603260045260246000fd5b7f4e487b7100000000000000000000000000000000000000000000000000000000600052604160045260246000fd5b600080fd5b600080fd5b600080fd5b600080fd5b6000601f19601f8301169050919050565b7f45434453413a20696e76616c6964207369676e61747572650000000000000000600082015250565b7f4552433732313a20746f6b656e20616c7265616479206d696e746564203a0000600082015250565b7f4552433732313a207472616e7366657220746f206e6f6e20455243373231526560008201527f63656976657220696d706c656d656e7465720000000000000000000000000000602082015250565b7f1901000000000000000000000000000000000000000000000000000000000000600082015250565b7f546f6b656e206e6f74206275726e740000000000000000000000000000000000600082015250565b7f4552433732313a207472616e7366657220746f20746865207a65726f2061646460008201527f7265737300000000000000000000000000000000000000000000000000000000602082015250565b7f4552433732313a20617070726f766520746f2063616c6c657200000000000000600082015250565b7f546f6b656e206e6f7420666f756e640000000000000000000000000000000000600082015250565b7f4552433732313a206f70657261746f7220717565727920666f72206e6f6e657860008201527f697374656e7420746f6b656e0000000000000000000000000000000000000000602082015250565b7f4552433732313a20617070726f76652063616c6c6572206973206e6f74206f7760008201527f6e6572206e6f7220617070726f76656420666f7220616c6c0000000000000000602082015250565b7f53696e676e61747572652046616c697572653a20696e76616c6964207369676e60008201527f6174757265000000000000000000000000000000000000000000000000000000602082015250565b7f4552433732313a2062616c616e636520717565727920666f7220746865207a6560008201527f726f206164647265737300000000000000000000000000000000000000000000602082015250565b7f4552433732313a206d696e7420746f20746865207a65726f2061646472657373600082015250565b7f4552433732313a20617070726f76656420717565727920666f72206e6f6e657860008201527f697374656e7420746f6b656e0000000000000000000000000000000000000000602082015250565b7f4552433732313a207472616e73666572206f6620746f6b656e2074686174206960008201527f73206e6f74206f776e0000000000000000000000000000000000000000000000602082015250565b7f5369676e6564207472616e73616374696f6e2065787069726564000000000000600082015250565b7f4552433732313a20617070726f76616c20746f2063757272656e74206f776e6560008201527f7200000000000000000000000000000000000000000000000000000000000000602082015250565b7f4552433732313a207472616e736665722063616c6c6572206973206e6f74206f60008201527f776e6572206e6f7220617070726f766564000000000000000000000000000000602082015250565b7f436f6e747261637420766572696669636174696f6e2063616c6c206661696c6560008201527f6420000000000000000000000000000000000000000000000000000000000000602082015250565b61347681612d23565b811461348157600080fd5b50565b61348d81612d35565b811461349857600080fd5b50565b6134a481612d41565b81146134af57600080fd5b50565b6134bb81612d4b565b81146134c657600080fd5b50565b6134d281612d97565b81146134dd57600080fd5b50565b6134e981612da1565b81146134f457600080fd5b5056fea2646970667358221220998b321d9fe376456ee2afe1017fe2e739e5fc2e374febe1f648aa047392b85164736f6c63430008070033",
  "immutableReferences": {},
  "source": "pragma solidity ^0.8.0;\n\nimport \"./erc721/ERC721.sol\";\n\ncontract GalleryERC721 is ERC721 {\n\n    event Archived (address indexed user,uint256 token,string identifier);\n\n    constructor(string memory name_, string memory symbol_) ERC721(name_,symbol_){\n    }\n\n    function executeMintIfSignatureMatch(\n        uint8 v,\n        bytes32 r,\n        bytes32 s,\n        address sender,\n        uint256 deadline,\n        string memory ipfs_hash,\n        string memory ipfs_url\n    ) external returns (uint256){\n        require(block.timestamp < deadline, \"Signed transaction expired\");\n\n        uint chainId =1337;\n       /* assembly {\n            chainId := chainid()\n        }*/\n\n        bytes32 eip712DomainHash = keccak256(\n            abi.encode(\n                keccak256(\n                    \"EIP712Domain(string name,string version,uint256 chainId,address verifyingContract)\"\n                ),\n                keccak256(bytes(\"GalleryERC721\")),\n                keccak256(bytes(\"1\")),\n                chainId,\n                address(this)\n            )\n        );  \n\n        bytes32 hashStruct = keccak256(\n        abi.encode(\n            keccak256(\"set(address sender,string ipfs_hash,string ipfs_url,uint deadline)\"),\n            sender,\n            keccak256(bytes(ipfs_hash)),\n            keccak256(bytes(ipfs_url)),\n            deadline\n            )\n        );\n\n        bytes32 hash = keccak256(abi.encodePacked(\"\\x19\\x01\", eip712DomainHash, hashStruct));\n        address signer = ecrecover(hash, v, r, s);\n        require(signer != address(0), \"ECDSA: invalid signature\");\n        require(signer == sender, \"Singnature Faliure: invalid signature\");\n        \n\n        return mintToken(signer,ipfs_hash,ipfs_url);\n  \n    }\n\n\n    function mintToken(address recipient, string memory hash, string memory metadata) public returns (uint256)\n    {\n        require(hashes[hash] != 1);\n        hashes[hash] = 1;\n        incrementTokenCounter();\n        uint256 newItemId = currentTokenCounter();\n        _safeMint(recipient, newItemId ,\"\");\n        tokenURI(newItemId,metadata);\n        emit Archived(recipient,newItemId,hash);\n        return newItemId;\n    }\n}",
  "sourcePath": "/home/atri/workspace_ethereum/ethapp/archiver/src/contracts/GalleryERC721.sol",
  "compiler": {
    "name": "solc",
    "version": "0.8.7+commit.e28d00a7.Emscripten.clang"
  },
  "schemaVersion": "3.4.3",
  "updatedAt": "2021-12-10T02:15:45.029Z",
  "networkType": "ethereum",
  "devdoc": {
    "kind": "dev",
    "methods": {
      "safeTransferFrom(address,address,uint256)": {
        "details": "See {IERC721-safeTransferFrom}."
      },
      "safeTransferFrom(address,address,uint256,bytes)": {
        "details": "See {IERC721-safeTransferFrom}."
      },
      "transferFrom(address,address,uint256)": {
        "details": "See {IERC721-transferFrom}."
      }
    },
    "version": 1
  },
  "userdoc": {
    "kind": "user",
    "methods": {},
    "version": 1
  }
}